:020000040800F2
:1000000000060020790400087B0400087B04000837
:100010007B0400087B0400087B0400087B040008C4
:100020007B0400087B0400087B0400084DB0000836
:100030007B0400087B0400087B0400087B040008A4
:100040007B0400087B0400087B0400087B04000894
:100050007B0400087B0400087B0400087B04000884
:100060007B0400087B0400087B040008F17E000884
:10007000197F0008457F0008717F00089D7F0008F8
:10008000C57F0008F17F00087B0400087B0400089E
:100090007B0400087B0400087B0400087B04000844
:1000A0007B0400087B0400087B0400087B04000834
:1000B0007B0400087B0400087B0400087B04000824
:1000C0007B0400087B0400087B0400087B04000814
:1000D0007B0400087B0400087B0400086DBF000857
:1000E0007B0400087B0400087B0400087B040008F4
:1000F0007B0400087B0400087B0400081D800008C6
:100100007B0400087B040008A9BF00087B040008EA
:100110007B04000881BF00087B0400087B04000802
:1001200049800008718000089D800008C98000088F
:10013000F58000087B0400087B0400087B040008AD
:100140007B0400087B0400087B0400087B04000893
:100150001D81000849810008758100087B040008A2
:100160007B0400087B0400087B0400087B04000873
:100170007B04000839BC00087B0400087B040008ED
:100180007B0400087B04000895BF00087B0400087E
:100190007B0400087B0400087B0400087B04000843
:1001A0007B0400087B0400087B0400087B04000833
:1001B0007B0400087B0400087B0400087B04000823
:1001C0007B0400087B0400087B0400087B04000813
:1001D0007B04000825BC00087B0400087B040008A1
:1001E0007B0400087B0400087B0400087B040008F3
:1001F0007B0400087B0400087B0400087B040008E3
:100200007B0400087B0400087B0400087B040008D2
:100210007B0400087B0400087B0400087B040008C2
:100220007B0400087B0400087B0400087B040008B2
:1002300059BF00087B0400087B0400087B04000809
:100240007B0400087B0400087B0400087B04000892
:100250007B0400087B0400087B0400087B04000882
:100260007B0400087B0400087B0400087B04000872
:100270007B0400087B0400087B0400087B04000862
:100280007B0400087B0400087B0400087B04000852
:100290007B0400087B0400087B0400087B04000842
:1002A0007B0400087B0400087B0400087B04000832
:1002B0007B0400087B0400087B0400087B04000822
:1002C0007B0400087B0400087B0400087B04000812
:1002D0007B0400087B0400087B0400087B04000802
:1002E0004ECF4EA5A6B6F7295FC8DD56AC482149CA
:1002F00082B8C4A2F08853678D159175B481B45C3F
:10030000CF332D752821A822B27347917F7A17D059
:100310003EFC84A9A4766B7358E33E8DE330D37E14
:100320008363D3A0A8564A005896DBA5B8CECFFC6D
:100330008C0772719EFAB24D4227090759712B64DE
:10034000034AA19F695D84F21FE80D75B02D867286
:10035000BC78CBAF6CB999947DF49A0CAB011EC1FB
:100360008E3BBFE23ED0F10900000000000000001B
:10037000000000000000000000000000000000007D
:10038000000000000000000000000000000000006D
:10039000000000000000000000000000000000005D
:1003A000000000000000000000000000000000004D
:1003B000000000000000000000000000000000003D
:1003C000000000000000000000000000000000002D
:1003D000000000000000000000000000000000001D
:1003E000000000000000000000000000000000000D
:1003F00000000000000000000000000000000000FD
:1004000000000000000000000000000000000000EC
:1004100000000000000000000000000000000000DC
:100420000000000000000000435253756D526567E4
:1004300001010000000000000000000000000000BA
:1004400000000000000000000000000000000000AC
:10045000000000000000000000000000000000009C
:10046000000000000000000000000000000000008C
:10047000000000000000000002E000F000F8FEE7CD
:1004800072B6374880F30888364880F309883648C2
:100490003649086040F20000CCF200004EF634719C
:1004A000CEF200010860BFF34F8FBFF36F8F40F2B1
:1004B0000000C0F2F0004EF68851CEF20001086054
:1004C000BFF34F8FBFF36F8F4FF00000E1EE100AC4
:1004D0004EF63C71CEF200010860062080F31488CD
:1004E000BFF36F8F0AF014FE09F06AFF4FF055302A
:1004F0001F491B4A91423CBF41F8040BFAE71D49D2
:10050000184A91423CBF41F8040BFAE71A491B4ACA
:100510001B4B9A423EBF51F8040B42F8040BF8E71C
:1005200000201849184A91423CBF41F8040BFAE7F1
:100530000AF02CFE09F0C8FF144C154DAC4203DA4A
:1005400054F8041B8847F9E700F08AFD114C124D5E
:10055000AC4203DA54F8041B8847F9E70AF014BEEA
:1005600000060020002200200000000808ED00E046
:10057000000000200006002038DC000800220020D7
:100580007422002078220020CC660020E0020008BF
:10059000E0020008E0020008E00200082DE9F04F48
:1005A0002DED108AC1F80CD0D0F80CD0BDEC108A1B
:1005B000BDE8F08F002383F311882846A047002070
:1005C00009F0E0FCFEE709F033FC00DFFEE7000085
:1005D00053B94AB9002908BF00281CBF4FF0FF31AA
:1005E0004FF0FF3000F074B9ADF1080C6DE904CEA6
:1005F00000F006F8DDF804E0DDE9022304B07047FE
:100600002DE9F047089D04468E46002B4DD18A42C5
:10061000944669D9B2FA82F252B101FA02F3C2F1F8
:10062000200120FA01F10CFA02FC41EA030E944089
:100630004FEA1C48210CBEFBF8F61FFA8CF708FBAA
:1006400016E341EA034306FB07F199420AD91CEB82
:10065000030306F1FF3080F01F81994240F21C81B4
:10066000023E63445B1AA4B2B3FBF8F008FB1033FC
:1006700044EA034400FB07F7A7420AD91CEB040431
:1006800000F1FF3380F00A81A74240F20781644401
:10069000023840EA0640E41B00261DB1D440002386
:1006A000C5E900433146BDE8F0878B4209D9002DEA
:1006B00000F0EF800026C5E9000130463146BDE874
:1006C000F087B3FA83F6002E4AD18B4202D38242DE
:1006D00000F2F980841A61EB030301209E46002D8D
:1006E000E0D0C5E9004EDDE702B9FFDEB2FA82F2E2
:1006F000002A40F09280A1EB0C014FEA1C471FFA40
:100700008CFE0126200CB1FBF7F307FB131140EA26
:1007100001410EFB03F0884208D91CEB010103F1F3
:10072000FF3802D2884200F2CB804346091AA4B2B5
:10073000B1FBF7F007FB101144EA01440EFB00FE89
:10074000A64508D91CEB040400F1FF3102D2A645EE
:1007500000F2BB800846A4EB0E0440EA03409CE78D
:10076000C6F12007B34022FA07FC4CEA030C20FA3A
:1007700007F401FA06F31C43F9404FEA1C4900FA5A
:1007800006F3B1FBF9F8200C1FFA8CFE09FB1811D7
:1007900040EA014108FB0EF0884202FA06F20BD94A
:1007A0001CEB010108F1FF3A80F08880884240F29A
:1007B0008580A8F102086144091AA4B2B1FBF9F0DE
:1007C00009FB101144EA014100FB0EFE8E4508D9D9
:1007D0001CEB010100F1FF346CD28E456AD902385E
:1007E000614440EA0840A0FB0294A1EB0E01A14243
:1007F000C846A64656D353D05DB1B3EB080261EBB1
:100800000E0101FA07F722FA06F3F1401F43C5E98A
:10081000007100263146BDE8F087C2F12003D840C0
:100820000CFA02FC21FA03F3914001434FEA1C4702
:100830001FFA8CFEB3FBF7F007FB10360B0C43EAF4
:10084000064300FB0EF69E4204FA02F408D91CEBA4
:10085000030300F1FF382FD29E422DD902386344A2
:100860009B1B89B2B3FBF7F607FB163341EA034142
:1008700006FB0EF38B4208D91CEB010106F1FF3891
:1008800016D28B4214D9023E6144C91A46EA004688
:1008900038E72E46284605E70646E3E61846F8E61A
:1008A0004B45A9D2B9EB020864EB0C0E0138A3E763
:1008B0004646EAE7204694E74046D1E7D0467BE744
:1008C000023B614432E7304609E76444023842E7BC
:1008D000704700BF032A70B515D940EA010C1CF01F
:1008E000030F04460B4621D1194620460E680568C1
:1008F000B54204F1040403F1040317D1043A032AB6
:1009000020461946F0D8541EA2B100F1FF3C01392F
:1009100001E0C3180CD01CF801EF11F8012F964527
:10092000A4EB0C03F5D0AEEB020070BD541EECE757
:10093000184670BD104670BD2DE9F04F012BADF289
:100940001C4D07468A46154640F21F814FF00109AB
:10095000002448464FF0FF364A4606E0A2EB06095F
:1009600014460120221893420FD9A91915F802C084
:10097000095C8C45F2D300F08C804FF001092646CB
:1009800048464C4422189342EFD84FF0010E002401
:1009900070464FF0FF3C724606E0A2EB0C0E144688
:1009A0000120221893420FD905EB0C0115F80280A3
:1009B000095C8845F1D872D04FF0010EA44670460C
:1009C000744422189342EFD80CF1010C01366645AD
:1009D00001D8F146664605AA0DF2144142F8043FDB
:1009E0008A42FBD1002B00F0CB805C1E691E05EB18
:1009F000040C0DF1180811F8010FCA431A442A44D7
:100A0000614548F82020F6D1324605EB0901284619
:100A10000193FFF75FFF019B002868D1AAEB030158
:100A2000A3EB0903024602930346701E0590C6F12C
:100A30000100CDE903908A4601950AE022B1039AAC
:100A40009142029A38BF11460B4453454FF00002C1
:100A500048D807EB030B1BF8041058F821100029A5
:100A6000ECD1B242114638BF3146A1421DD20198A5
:100A70004D1E05445818384402E00131A14214D2F9
:100A800010F801CB15F801EFE645F6D0049A1344AF
:100A9000DAE7814512BF01304C44012062E770451E
:100AA0000ABF2418013001207BE7B242059972D2B7
:100AB000019D98193844354402E08A425ED061466F
:100AC00010F801CD15F801EDE64501F1010901F13C
:100AD000FF3CF2D001324A455BD8039A1344534598
:100AE000029AB6D900200DF21C4DBDE8F08FAAEB9A
:100AF000030A9B1BB34238BF33464FF00009013352
:100B000007EB09000293C6F101030193035D58F856
:100B1000233006F1FF3B4BB19944D145E2D807EBB6
:100B20000900035D58F82330002BF5D1A64213D2FB
:100B300006EB09023A4405EB0B01334602E00133B0
:100B4000A34209D212F801CB11F801EFE645F6D025
:100B5000019A91449944E0E7002EC4D006EB0901C4
:100B60003944AA1901E0AB42BDD012F801ED11F8E9
:100B700001CDE6451346F6D0029BCDE79146A9E7A5
:100B80004FF0FF340DF118083EE74FF00109002641
:100B900021E75846A7E7B1469CE700BF2DE9F0479B
:100BA0000446C0B0002B69D0012B0D4690461F466D
:100BB00000F087808B425DD8CD1A022B00EB050632
:100BC00060D0B3F5807F00F2838000214FF4807203
:100BD00068465D1E01F0C2FD404601210246437891
:100BE0001278A3EBC203DBB201300DF80310013120
:100BF0008D42F3D808EB07034FF0000A13F8022CDC
:100C000018F80530A3EBC203DBB21DF803900DF812
:100C10000350A5EB0909B44201D92BE063B92C4478
:100C2000A64214F8013C94F800C0ACEBC30C5FFA88
:100C30008CFC1DF80C30F1D29D42A4EB0304EAD8E1
:100C40000F2D07D9042208EB0A0104EB0A00FFF775
:100C500041FE60B92A4641462046FFF73BFE68B197
:100C6000BAF1030F8CBFAAF1040AA7F1050A4C449C
:100C7000B442D4D9002040B0BDE8F087204640B04F
:100C8000BDE8F08713785578017845EA03450346B7
:100C900013F8012F9E4242EA01421DD39542EDD046
:100CA000013601E09542E6D0184613F8011FB34221
:100CB00041EA0242F6D1954208BF06F1FF30D9D190
:100CC000D9E711782A4640B0BDE8F04700F078B97E
:100CD00040B0BDE8F0472FE61E46ECE788420DD94C
:100CE0008B1883420AD900EB020CBAB1624613F8A2
:100CF00001CD02F801CD9942F9D170470F2A0ED8E3
:100D0000034602F1FF3C4AB10CF1010C013B8C445B
:100D100011F8012B03F8012F6145F9D1704740EA22
:100D200001039B0750D1A2F1100370B501F1200C13
:100D300023F00F0501F1100E00F11004AC441B0963
:100D40005EF8105C44F8105C5EF80C5C44F80C5CD7
:100D50005EF8085C44F8085C5EF8045C44F8045CE7
:100D60000EF1100EE64504F11004E9D1013312F042
:100D70000C0F01EB031102F00F0400EB031327D05B
:100D8000043C24F003064FEA940C1E441C1F8E46BC
:100D90005EF8045B44F8045FB442F9D10CF101043D
:100DA00002F0030203EB840301EB840102F1FF3C38
:100DB0004AB10CF1010C013B8C4411F8012B03F8F2
:100DC000012F6145F9D170BD02F1FF3C03469BE75D
:100DD0002246EBE711F0FF01034644D0820732D1EF
:100DE00010B5046841EA012E4EEA0E4E8EEA040266
:100DF000A2F1013323EA0203A4F1013222EA040240
:100E0000134313F0803F0FD150F8044F84EA0E0CC7
:100E1000A4F10133ACF1013223EA040322EA0C020B
:100E2000134313F0803FEFD0037823B936E010F876
:100E3000013F002B32D09942F9D110BD8A4211D026
:100E40009A071846CCD0184613F8012B002AF5D182
:100E5000104670479907184607D0184601330278A4
:100E6000002AF7D170478207F7D10268A2F1013357
:100E700023EA020313F0803F08D150F8042FA2F1B7
:100E8000013323EA020313F0803FF6D00378002BEE
:100E9000E8D010F8013F002BFBD17047184610BD79
:100EA00080EA0102844612F0030F4FD111F0030FC4
:100EB00032D14DF8044D11F0040F51F8043B0BD022
:100EC000A3F101329A4312F0803F04BF4CF8043B77
:100ED00051F8043B16D100BF51F8044BA3F1013285
:100EE0009A4312F0803FA4F101320BD14CF8043B3D
:100EF000A24312F0803F04BF51F8043B4CF8044B6E
:100F0000EAD023460CF8013B13F0FF0F4FEA3323DE
:100F1000F8D15DF8044B704711F0010F06D011F8BD
:100F2000012B0CF8012B002A08BF704711F0020FAB
:100F3000BFD031F8022B12F0FF0F16BF2CF8022B96
:100F40008CF8002012F47F4FB3D1704711F8012BB9
:100F50000CF8012B002AF9D1704700BF30B540EAE8
:100F60000104A30701D1032A0FD8844601F1FF3EF3
:100F700007E01EF8011F03F8011B541EC1B19C4677
:100F800022466346002AF4D130BD0B4684461946FA
:100F900053F8045BA5F1013424EA050414F0803F02
:100FA000E4D1043A032A4CF8045B1946EFD8DDE794
:100FB0006244002CE8D003F8011B9342FBD130BD02
:100FC00001F0FF01102A2BDB10F0070F08D010F8FA
:100FD000013B013A8B422DD010F0070F42B3F6D1FE
:100FE000F0B441EA012141EA014122F007047FF017
:100FF00000070023F0E80256083C85EA010586EA6E
:10100000010685FA47F5A3FA87F586FA47F6A5FAA9
:1010100087F68EB9EED1F0BC01F0FF0102F00702B5
:1010200032B110F8013B013A83EA010313B1F8D160
:101030000020704701387047002D06BF3546033841
:10104000073815F0010F07D1013015F4807F02BF7A
:10105000013015F4C03F0130F0BC0138704700BFCB
:1010600070B501F02BFA01F02FFC09F0CDFE05461A
:1010700009F0DEFF044620BB194B9D4223D001330B
:101080009D4241F2883504BF0124002501F0DEFEB7
:10109000064601F079FD0146BEB9124801F0E8FAB2
:1010A000002009F0BBFE0CB100F084F801F0ACFBAD
:1010B00000F048FD08B100F07DF8284600F034F952
:1010C000F9E70025E2E70546E0E732460648002555
:1010D00001F0CEFA03202C4600F056F8E0E700BFFE
:1010E000010007B004C9000811C9000808B501F0E3
:1010F000B1F9A0F120035842584108BD07B50421B9
:1011000001900DEB010001F0C3F903B05DF804FBA1
:1011100038B5302383F31188174803680BB109F001
:1011200015F80023154A4FF47A71134809F004F8B2
:10113000002383F31188124C236813B12368013B09
:101140002360636813B16368013B63600D4D2B78C6
:1011500033B963687BB9022001F078FA3223636007
:101160002B78032B07D163682BB9022001F06EFAAC
:101170004FF47A73636038BD7822002011110008A3
:101180009823002090220020084B187003280CD8C8
:10119000DFE800F008050208022001F047BA02204B
:1011A00001F034BA024B00225A60704790220020AE
:1011B00098230020F8B501F049FE30B1524B0322CC
:1011C0001A700022514B5A60F8BD514B514A1C46CF
:1011D00019680131F8D004339342F9D162684E4B5B
:1011E0009A42F1D94D4B9B6803F1006303F500333C
:1011F0009A42E9D2002001F07BF90220FFF7C4FFF8
:10120000474B0021D3F8E820C3F8E810D3F81021A9
:10121000C3F81011D3F81021D3F8EC20C3F8EC1068
:10122000D3F81421C3F81411D3F81421D3F8F02003
:10123000C3F8F010D3F81821C3F81811D3F8182107
:10124000D3F8802042F00062C3F88020D3F88020D9
:1012500022F00062C3F88020D3F88020D3F88020E9
:1012600042F00072C3F88020D3F8802022F0007290
:10127000C3F88020D3F8803072B64FF0E023C3F873
:10128000084DD4E90004BFF34F8FBFF36F8F254A99
:10129000C2F88410BFF34F8F536923F48033536136
:1012A000BFF34F8FD2F8803043F6E076C3F3C90521
:1012B000C3F34E335B0103EA060C29464CEA8177FF
:1012C0000139C2F87472F9D2203B13F1200FF2D128
:1012D000BFF34F8FBFF36F8FBFF34F8FBFF36F8F8E
:1012E000536923F4003353610023C2F85032BFF333
:1012F0004F8FBFF36F8F302383F31188854680F3C0
:101300000888204760E700BF902200209823002033
:101310000000020820000208FFFF01080022002050
:101320000044025800ED00E02DE9F04F95B0DFF8E1
:10133000D8922022FF21029004A8D9F8085001F089
:101340000DFAA84A1378A3B90121A74811700360C8
:10135000302383F3118803680BB108F0F7FE0023F4
:10136000A24A4FF47A71A04808F0E6FE002383F306
:101370001188029B13B19E4B029A1A609D4A137802
:10138000032B03D000231370994A53604FF0000BD6
:10139000029C5E46DA46CDF804B0012001F046F921
:1013A00024B1934B1B68002B00F02882002001F031
:1013B00051F8B0F10008F3DB012001F027F9A8F1A2
:1013C00021031F2BE9D801A252F823F04D14000885
:1013D00069140008F71400089B1300089B13000809
:1013E0009B13000881150008731700086516000894
:1013F000C1160008E71600080D1700089B13000827
:101400001F17000843170008BB170008D514000871
:101410009B1300080318000859140008D51400088D
:101420009B130008C11600089B1300089B130008BB
:101430009B1300089B1300089B1300089B130008D4
:101440009B1300089B130008F71400080220FFF705
:101450004DFE002840F0FF81029B02216648BBF14F
:10146000000F08BF1C4640E04FF47A7000F0F2FF16
:10147000071EF1DB0220FFF739FE0028ECD0013F08
:10148000052F00F2EA81DFE807F003070A0D1033A9
:101490000520FFF733FE14E0D9F80000F9E7D9F88A
:1014A0000400F6E7D9F80800F3E74FF01C084046BF
:1014B00008F1040801F01EF8FFF720FEB8F12C0F28
:1014C000F5D10120019B4FF0000A00FA07F71F43F6
:1014D000FBB2019301F08EF92EB1019B03F00B03D7
:1014E0000B2B08BF00240221444800F0D1FF54E731
:1014F000D9F80C00CDE7002EAED0019B03F00B0312
:101500000B2BA9D10220FFF7F1FD07460028A3D03D
:101510000120002600F0ECFF0220FFF735FE1FFA45
:1015200086FB584600F0F4FF044688B1A8F140025B
:10153000584601365142514100F0FAFF0028EED1E1
:10154000BB46044602212E483E4600F0A1FF24E798
:1015500025460120FFF718FED9F80830AB4207D91D
:10156000284600F0C7FF013040F07A810435F3E7E8
:101570000025204BBB463E461D701D4B5D60A9E714
:10158000002E3FF469AF019B03F00B030B2B7FF49C
:1015900063AF0220FFF7F8FD322000F05BFFB0F1EF
:1015A0000008FFF659AF18F003077FF455AF08EBBA
:1015B0000503D9F8082093423FF64EAFB8F5807F77
:1015C0003FF74AAF0F4BB84503931FDD4FF47A70D6
:1015D00000F040FF0028FFF63FAF039B013703F800
:1015E000010BF0E79423002078220020111100085D
:1015F000982300209022002044C900083CC900081C
:1016000040C900089422002000220020C820FFF7D3
:101610006DFD074600283FF41FAF1F2D11D8C5F1FF
:10162000200204AB25F003008F494245184428BF2F
:101630004246039201F06CF8039AFF218A4801F0B8
:101640008DF84FEAA803C8F3870287492846039319
:1016500001F08CF8064600283FF474AF039B05EBBD
:10166000830537E70220FFF741FD00283FF4F4AE81
:1016700000F07CFF00283FF4EFAE0027B846D9F811
:101680000830BB4218D91F2F11D8049B01330ED04C
:1016900027F0030350336B4453F8403C0C9340460F
:1016A00004220CA9043701F0A7F98046E7E7384681
:1016B00000F020FF0C90F2E74046FFF71FFD09E71E
:1016C000002364210CA80C9300F0D8FE00287FF4BE
:1016D000C3AE0220FFF70AFD00283FF4BDAE0C9810
:1016E00000F03AFFE9E7002364210CA80C9300F016
:1016F000C5FE00287FF4B0AE0220FFF7F7FC0028FB
:101700003FF4AAAE0C9800F029FFD6E70220FFF7BD
:10171000EDFC00283FF4A0AE00F038FFCDE702203A
:10172000FFF7E4FC00283FF497AE0CA9142000F06A
:1017300033FF0390FFF7E2FC03990CA800F0A8FE2A
:10174000C8E60220FFF7D2FC00283FF485AE474BE5
:101750000CAF03F1100C1868083353F8041C3A4618
:10176000634503C21746F6D11020FFF7C7FC1021CE
:10177000E3E7322000F06EFE071EFFF66DAEBB07FA
:101780007FF46AAE07EB0A03D9F8082093423FF6CC
:1017900063AE0220FFF7AAFC00283FF45DAE27F0FD
:1017A00003075744BA453FF495AE50460AF1040A80
:1017B00000F0A0FEFFF7A2FCF4E74FF47A70FFF709
:1017C00095FC00283FF448AE00F0D0FE002849D038
:1017D000049B01330BD0082204A9002000F0C6FFAF
:1017E00000283FD02022FF2104A800F0B7FF2048A6
:1017F000022100F04DFE1F4808F0CAFB15B0BDE8FD
:10180000F08F002E3FF428AE019B03F00B030B2B4F
:101810007FF422AE002364210CA80C9300F02EFE6E
:10182000074600287FF418AE0220FFF75FFC8046D1
:1018300000283FF411AE02210D4800F029FE41F2CC
:10184000883008F0A5FB0C9801F01CF846463C4691
:1018500000F0D0FFA1E506463CE64FF0000AFBE5AC
:10186000BB466FE637466DE69422002028C9000883
:101870003CC90008A08601007047000070470000C6
:10188000704700002DE9F04100F580370446164608
:101890003B7C5BB9C0681030204400F039FFE5683C
:1018A0003544B5F5004FE56002D816B1BDE8F081CA
:1018B000DEB905F07F0605F110000021C6F18006B3
:1018C0002044F6B232462E4400F048FFA06804F1EE
:1018D0001008324600F10060414600F5003009F082
:1018E00033F830B901233B74E0E74FF40046354646
:1018F000ECE7A26805F11001404632442144A260A1
:10190000E268521BE26000F003FF0220BDE8F041F4
:1019100000F09CBE183000F0E9BC000010B5044691
:1019200003F042FD204610BD10B5044603F03CFD17
:10193000204610BDC0B2A0F14103052B02D83738B4
:10194000C0B27047A0F16103052B94BF57383038FF
:10195000F6E7000070B504461546084603220C4918
:1019600000F0E0FE014688B908346E1C15F911003C
:10197000FFF7E0FF024616F911000131FFF7DAFF29
:10198000102940EA021004F8010BEFD170BD00BF2E
:1019900048C900082DE9F04FADF53F7D0746416885
:1019A00001222AA805F0F6FB002840F087800646B1
:1019B000824681461125DFF80C81DFF80CB101ABBE
:1019C0004FF4805241462AA805F044FD002875D105
:1019D000019AB2F5805F71D8002A65D00446019A59
:1019E0009442ECD2282D0FD008DC132D2DD01E2DC3
:1019F00039D0112D13D00134A4B2F0E7322D2DD0FF
:101A0000372D2FD02D2DF6D13B68121B08EB04018A
:101A100038461B692D259847BDF80440EBE7121B9B
:101A2000022A09D9594608EB040000F07BFE18B9D8
:101A300002342825A4B2DEE718F804303A2B3DD052
:101A40000A2B1CBFA1461325D5E718F804300A2B32
:101A500034D03A2B04BFA2463225CCE718F8043024
:101A6000202BC8D0264618F804300A2B1AD1AAEB2E
:101A7000090208EB090102A811254F2A28BF4F22AD
:101A8000FFF76CFAA21B08EB060116A84F2A28BF25
:101A90004F22FFF763FA3B6816AA02A9DB683846B3
:101AA0009847A8E71E25A6E73B68384604491B6906
:101AB000984701200DF53F7DBDE8F08F0020F9E744
:101AC00058CA0008A02300204CC9000800F11801E2
:101AD00010B5044686B00846019100F0F1FB20469F
:101AE000FFF758FF60B1019902A800F049FC1022ED
:101AF00004F1080102A8FEF7EDFEB0FA80F04009FB
:101B000006B010BD70B504460025EEB2304600F0B8
:101B1000FFFC58B100213046013500F009FD08B93D
:101B2000002070BD022000F091FDEEE72046FFF797
:101B300031FF0028F4D004F58034207C80F00100CF
:101B4000EFE70000F0B5C9B009F076F903F048FC02
:101B500018B90025284649B0F0BD69462A4805F065
:101B60003BFD00284BD1294C204605F065FD284857
:101B700005F062FD274805F05FFD2146224805F08B
:101B8000D7FD0028E5D1702003F008FC064610B10F
:101B9000214B44600360336830469B689847054694
:101BA00000282ED01A4F1948394605F0C1FD0546C8
:101BB0000028CED1194803F0F1FB044638B1184B88
:101BC0004760036000F58033C0E902551D74236847
:101BD00020469B689847054628B10E490C4805F0F9
:101BE000A7FD0028B5D1336830465B6898471CB123
:101BF000236820465B68984703F0DAFBAAE70025D4
:101C0000FAE70446EFE700BF50C9000860C90008C2
:101C100077C900088DC90008B0C900081400010088
:101C2000CCC900082DE9F04FD44A8DB00B68D0F82C
:101C300004A001931A440368D14E1A44D1F81C90B1
:101C4000DFF8B4C3DFF8B4B3D0E90234634003EA89
:101C50000A03634013444A6802920AEB7363029CCE
:101C6000C84A2244C468224484688AEA04051D40A4
:101C7000654015448A68039203EB3555039CC24ABC
:101C80002244846822448AEA03042C4084EA0A0439
:101C90001444CA6805EBF4340492164483EA05023E
:101CA000224056445A4032440E69059604EBB22253
:101CB000059FB64E3E441E4485EA040313406B4024
:101CC00033444E69069602EB7363069FB04E3E4462
:101CD0002E4484EA02051D40654035448E6907960E
:101CE00003EB3555079FAB4E3E44264482EA03047E
:101CF0002C4054403444A84E4E4405EBF434164472
:101D000083EA050222405A4032440E6A089604EBE8
:101D1000B222089FA14E3E441E4485EA04031340AC
:101D20006B4033444E6A099602EB7363099F9C4EE5
:101D3000D1F830E03E44D1F83880F3442E4484EAB0
:101D400002051D40654035448E6AA6F5244703EB25
:101D500035550A964F3F274482EA03042C405440ED
:101D60003C44CF6A0B9705EBF4340B9E8D4F374400
:101D7000029E174483EA050222405A403A448A4FA1
:101D8000774404EBB2221F4485EA040313406B40FE
:101D90003B444F6BBC4402EB7363654484EA020C22
:101DA0000CEA030C8CEA040C6544DFF854C2C4440A
:101DB00003EB3555A44482EA03042C4054406444A8
:101DC000D1F83CC0794905EBF4346144114483EA0D
:101DD000050222405A400A44754904EBB2223144BC
:101DE000079E194484EA02032B4063400B44714967
:101DF00002EBF36331440B9E0D4482EA0301214060
:101E0000514029446C4D03EBF1513544019E25446A
:101E100083EA010414405C402C44684D01EBB44457
:101E20003544069E154481EA04021A404A402A4479
:101E3000634D04EB323235440A9E1D4484EA0203AA
:101E40000B4063402B445F4D02EBF3633544059E2A
:101E50000D4482EA03012140514029445A4D03EBCD
:101E6000F1516544254483EA010414405C402C444C
:101E7000564D01EBB4443544099E154481EA0402F1
:101E80001A404A402A44524D04EB32323544049EF3
:101E90001D4484EA02030B4063402B444D4D02EB8A
:101EA000F36345440D4482EA030121405140294433
:101EB000494D03EBF1513544089E2C4483EA01055A
:101EC00015405D402C44454D01EBB4443544039E20
:101ED0002A4481EA04051D404D402A44404D04EB4C
:101EE00032323D442B4484EA020593440D40654060
:101EF0002B443C4D02EBF3633544069E294482EAB1
:101F00000305254055402944374D03EBF1514D441D
:101F10002C4483EA010515405D40254401EBB5459D
:101F200081EA050404EA03024A405A44A6F5B82BA4
:101F3000089E05EB3232ABF2BE6B54405B44234447
:101F40002A4C344402EB33730B9E0C4485EA0201A5
:101F500059402144264C344403EB7151029E2544E0
:101F600082EA03044C402544224C444401EB3545AD
:101F7000144483EA01026A40224443E078A46AD709
:101F8000EECEBDC156B7C7E8DB702024AF0F7CF59D
:101F90002AC68747134630A8019546FDD898806920
:101FA000AFF7448BBED75C892211906B2108B449EE
:101FB00062251EF640B340C0515A5E26AAC7B6E954
:101FC0005D102FD65314440281E6A1D8C8FBD3E795
:101FD000E6CDE121D60737C3870DD5F4ED145A4578
:101FE00005E9E3A9F8A3EFFCD9026F6781F67187D1
:101FF00022619D6D0C38E5FD937198FD8A4C2A8D08
:102000008E4379A6934C344405EB7222059E1C4402
:1020100081EA0503534023448F4C344402EB33736D
:102020000A9E0C4485EA0201594021448B4C4C44E1
:1020300003EB7151254482EA03044C402C44884D43
:10204000354401EB3444019E154483EA01026240A9
:102050002A44844D3D4404EB72221D4481EA04036A
:1020600053402B44804D354402EB3373049E294486
:1020700084EA02055D4029447C4D354403EB7151EF
:10208000079E254482EA03044C402C44784D354495
:1020900001EB3444099E2A4483EA01056540154456
:1020A000744A324404EB7525039E134481EA04020A
:1020B0006A401A44704B734405EB32720B4484EA55
:1020C0000501514019446D4B634402EB71511C44AE
:1020D00085EA02034B401C44694B334401EB344412
:1020E000019E1D4482EA010363402B44654D04EBCD
:1020F00073233544069E154463EA010262402A4474
:10210000614D03EBB2624D4462EA040929445F4D1C
:1021100089EA0309454449442C445D4D02EBB15121
:102120003544049E61EA03081D4488EA02084444D9
:1021300001EB744464EA02034B402B44554D04EB1D
:10214000F323754463EA010E15448EEA040E0EEB88
:102150000502514D03EBB262354462EA040E294494
:102160000A9D8EEA030EA5F580164C4D7144A6F625
:10217000833602EBB151264461EA030454403444EF
:10218000029E01EB7444354464EA02061D444E404D
:102190007319089E424D04EBF323354463EA0106AC
:1021A0001544664072193F4D03EBB262654462EA22
:1021B000040629443C4D5E403144079E02EBB15178
:1021C000354461EA03062C44384D56403D443444BE
:1021D000059E1D4401EB744464EA02034B402B440A
:1021E000334D04EBF32335440B9E154463EA01029F
:1021F00062402A442F4D03EBB2623544039E0D44E6
:1022000062EA0401594029442B4D02EBB151354497
:102210002A4E254461EA030454402C44099D01EBF5
:1022200074442E4464EA02051E4485EA01039D19A4
:1022300003681A440AEB040303EBF52302604360CE
:1022400083681C44C36819448460C1600DB0BDE854
:10225000F08F00BF44EABEA4A9CFDE4B604BBBF6B3
:1022600070BCBFBEC67E9B28FA27A1EA8530EFD49A
:10227000051D880439D0D4D9E599DBE6F87CA21F86
:102280006556ACC4442229F497FF2A43A72394AB94
:1022900039A093FCC3595B6592CC0C8FD15D8485CA
:1022A0004F7EA86FE0E62CFE144301A3A111084E57
:1022B000827E53F735F23ABDBBD2D72A91D386EB53
:1022C000094B036003F18833436003F12943A3F50D
:1022D0009613A3F68B638360A3F18833C360002356
:1022E000C0E90433704700BF012345672DE9F84377
:1022F0001446026905460E46E300C2F3C50800F124
:1023000018079B18036122BF43690133436112F42C
:10231000FC7F436903EB5473436114D0C8F1400957
:1023200007EB08004C4504D22246BDE8F843FEF70F
:10233000D5BC403C4A464E44FEF7D0FC44443946A6
:102340002846FFF76FFCA04606EB0409B8F13F0FE3
:10235000A9EB08010AD940223846FEF7BFFC3946EE
:102360002846A8F14008FFF75DFCEFE7A1096FF0F0
:102370003F02384602FB014206EB8111D5E700001F
:1023800070B50B6901F1180506460C46C3F3C50389
:10239000EA18501C8022EA54C3F13F02072A1FD8D2
:1023A000002100F0DBF929462046FFF73BFC3822EC
:1023B0000021284600F0D2F92369294620462365EA
:1023C00063696365FFF72EFC214610223046FEF755
:1023D00085FC204658220021BDE8704000F0BEB9BF
:1023E000C3F137020021E5E72DE9F84F4FF47A7386
:1023F00006460D46002402FB03F7DFF85080DFF8A5
:10240000509098F900305FFA84FA5A1C01D0A34228
:1024100010D159F824002A4631460368D3F820B079
:102420003B46D847854205D1074B012083F800A0E1
:10243000BDE8F88F0134042CE3D14FF4FA7007F0B3
:10244000A7FD0020F4E700BFE433002010220020A5
:1024500014220020002307B5024601210DF10700D8
:102460008DF80730FFF7C0FF20B19DF8070003B0DB
:102470005DF804FB4FF0FF30F9E700000A46042145
:1024800008B5FFF7B1FF80F00100C0B2404208BDBF
:10249000074B0A4630B41978064B53F821400146E1
:1024A00023682046DD69044BAC4630BC604700BF62
:1024B000E433002014220020A086010070B50A4EEB
:1024C00000240A4D08F0E4F93080286833888342FC
:1024D00008D908F0D9F92B6804440133B4F5003F5A
:1024E0002B60F2D370BD00BFE6330020A033002084
:1024F00008F0A8BA00F1006000F5003000687047ED
:1025000000F10060920000F5003008F01DBA0000F4
:10251000054B1A68054B1B889B1A834202D910444D
:1025200008F0B2B900207047A0330020E633002045
:1025300038B50446074D29B128682044BDE8384025
:1025400008F0BAB92868204408F0A4F90028F3D0AC
:1025500038BD00BFA03300200020704700F1FF50BD
:1025600000F58F10D0F8000870470000064991F878
:10257000243033B100230822086A81F82430FFF7A1
:10258000BFBF0120704700BFA4330020014B186873
:10259000704700BF0010005C194B0138032208444B
:1025A00070B51D68174BC5F30B042D0C1E88A64291
:1025B0000BD15C680A46013C824213460FD214F9E3
:1025C000016F4EB102F8016BF6E7013A03F108031F
:1025D000ECD181420B4602D22C2203F8012B0424B9
:1025E000094A1688AE4204D1984284BF967803F80F
:1025F000016B013C02F10402F3D1581A70BD00BF17
:102600000010005C242200200CCA0008022804D11B
:10261000054B4FF000629A6170470128FCD1024BD4
:102620004FF08062F7E700BF000C0258022804D187
:10263000054B4FF400629A6170470128FCD1024BB0
:102640004FF48062F7E700BF000C0258022805D162
:10265000064A536983F40063536170470128FCD133
:10266000024A536983F48063F6E700BF000C025806
:102670000FB41A4B10B51A78B6B042B901221849F6
:1026800018481A704FF4E1330B6006F0D7FE39ABEF
:10269000389AC82104A8039302F0F8FE0246C8281D
:1026A000104804A928BFC82203680192DC690E4BB8
:1026B000A0470E4800F58053D3F8A4384BB11B68EF
:1026C000019A1B78042B04D1036804A9DC69002358
:1026D000A04736B0BDE8104004B07047E833002092
:1026E000EC3300203C390020A08601003049002056
:1026F00070B504464FF47A764CB1412C254628BF7C
:10270000412506FB05F0641B07F042FCF4E770BDB1
:10271000002310B5934203D0CC5CC4540133F9E7D5
:1027200010BD0000013810B510F9013F3BB191F91F
:1027300000409C4203D11AB10131013AF4E71AB1C9
:1027400091F90020981A10BD1046FCE70346024696
:10275000D01A12F9011B0029FAD17047024403462E
:10276000934202D003F8011BFAE770472DE9F843C2
:102770001F4D14460746884695F8242052BBDFF8C3
:1027800070909CB395F824302BB92022FF21484645
:102790002F62FFF7E3FF95F824004146C0F10802DD
:1027A00005EB8000A24228BF2246D6B29200FFF776
:1027B000AFFF95F82430A41B17441E449044E4B2A4
:1027C000F6B2082E85F82460DBD1FFF7CFFE002893
:1027D000D7D108E02B6A03EB82038342CFD0FFF707
:1027E000C5FE0028CBD10020BDE8F8830120FBE71F
:1027F000A4330020024B1A78024B1A70704700BFB6
:10280000E433002010220020F8B5194C194806F0D6
:10281000B7FE2146174806F0DFFE24684FF47A70B1
:10282000154ED4F89020154DD2F80438114F43F0CE
:102830000203C2F80438FFF75BFF2046104906F098
:10284000D9FFD4F890200424D2F8043823F00203EE
:10285000C2F804384FF4E133336055F8040BB84242
:1028600002D0314606F0EAFD013CF6D1F8BD00BFCA
:10287000B8DA000830490020CC33002014220020B0
:10288000C0DA00080C4B70B50C4D04461E780C4B9A
:1028900055F826209A420DD00A4B002118221846DE
:1028A000FFF75CFF0460014655F82600BDE8704064
:1028B00006F0C4BD70BD00BFE43300201422002028
:1028C00030490020CC3300202DE9F04771B6464B4B
:1028D00001201D68454BB3F8008000231A461946B5
:1028E00005F0F0FC0446802008F04CF9074600286B
:1028F00062D0002C60D03E4EADB24FF0800A7369BA
:10290000284643F0C0637361D6F8143143F0C063C6
:10291000C6F8143107F0B8FF05EB080200FB05F319
:102920004FF4D06C50434FF03D0E984233D932698A
:10293000520144D4D6F81021510140D4216803F14A
:1029400000628A602268D7602268C2F804A0226808
:10295000C2F800C0D4F80090D9F8002042F001027B
:10296000C9F80020D4F80090D9F8002022F01E0207
:10297000C9F80020D4F80090D9F80020D207FBD481
:1029800094F80C90803361680EFA09F20A60CCE783
:10299000002008F057F8204605F0D4FC384608F02F
:1029A0002DF9134B5A6942F0C0625A61D3F81421D1
:1029B00042F0C062C3F8142161B6BDE8F0870D4B48
:1029C0009A6A42F400729A629A6A42F400429A62E7
:1029D00061B60026012008F035F8B045D8D9A8190D
:1029E000013607F069FFF8E7A0330020E633002046
:1029F0000020005200ED00E030B50A44084D91423D
:102A00000DD011F8013B5840082340F30004013B6E
:102A10002C4013F0FF0384EA5000F6D1EFE730BDFD
:102A20002083B8ED2DE9F04F00F1400185B0034659
:102A30001A6812BA43F8042B8B42F9D1D0E9126319
:102A4000D0E9105702930021DFF80081D0E916C3C6
:102A5000D0E9144E03930F294EDC50F821204FEAA1
:102A6000F42304EA0E0B2CEA040958F804AB83EAB9
:102A7000B413013189EA0B0983EA7463402999444C
:102A8000039BCA4487EA0609524409EA050907EA92
:102A9000060A1A444FEA753389EA0A0983EAB5033C
:102AA00083EAB5539944029B13444A449B46CDE9BB
:102AB000026C1AD1436C016C2B440A444364836C4E
:102AC00002643B448364C36C3344C364036D5B445E
:102AD0000365436D23444365836D73448365C36D10
:102AE0006344C36505B0BDE8F08FF4463E46A64694
:102AF0002F465C461546AEE78B1E01F00F0903F02A
:102B00000F0350F8292050F823A0A1F10F0303F080
:102B10000F0350F823300193CB1F03F00F0350F83D
:102B2000233003EB020B4FEAFA4383EA7A4383EA4A
:102B30009A239B44019B4FEAB34A8AEAF31A8AEA32
:102B4000D3025A4440F8292089E700BFECCB0008A3
:102B500030B5002489B00B4D1C22214601A80094F9
:102B6000FFF7FCFD202269462819FDF7B3FE30B9B6
:102B70002034B4F5A07FF5D1012009B030BD00208C
:102B8000FBE700BFE802000813289ABF024B53F886
:102B900020000248704700BF9CCB00081CCA0008F8
:102BA0000C4B0D4A0D49DFF844C0C0E910230C4B13
:102BB000C0E912130B4BC0E914C30B4B836503F13F
:102BC0007453A3F52303A3F69243C365002303665E
:102BD000704700BF85AE67BB67E6096A72F36E3C5B
:102BE0003AF54FA58C68059BABD9831F7F520E51D8
:102BF0002DE9F041036E06468846144603F03F0572
:102C000013440366A4B1C5F1400770194146A742B9
:102C100028BF27463D443A46FFF77AFDB844402D89
:102C2000A4EB0704EED130460025FFF7FBFEE9E7F1
:102C3000BDE8F08170B59AB005460E46144601A86D
:102C4000FFF7AEFF32462946FFF7D2FF199D05F088
:102C50003F02ED00501C02F1680338280DEB03021F
:102C60004FF0800302F8643C0AD901ABC0F1400286
:102C700000211844FFF772FD01A8FFF7D3FE0020E2
:102C800001ABC0F13C0200212DBA1844FFF766FDEC
:102C900001A81095FFF7C6FE11A9224604F12000F5
:102CA00051F8043B04321C0E02F8013C02F8044CBB
:102CB0001C0C02F8034C1C0A02F8024C8242EFD1B1
:102CC0001AB070BD2DE9F047564AE2B010686B4665
:102CD00051686A4603C3082353495448FDF75EFF11
:102CE0000446002800F091800569B5F5F01F00F258
:102CF0008E80B0F86630382B40F08B804C4F074404
:102D000007F15C039D42C0F086805C3D00F16408E1
:102D10003A464649ED1B0020FFF76EFE4146064647
:102D20002A460020FFF768FEA368B34275D1E36826
:102D3000834272D1FFF70CFF80BBA369482B6ED191
:102D4000082204F11C013B48FDF7C4FD002866D1B0
:102D50000646DFF8F490DFF8D4A04FF4B0720021FB
:102D60000AA8FFF7FBFC09EB060204F124010AA8FC
:102D700002F0D8F93A4651460AA802F0D9F90AA851
:102D80002A46414602F0D4F90AA802F0D3F928B144
:102D90002036B6F5A07FE0D112201AE0264A0AAB11
:102DA00010685168082203C30AA92448FDF792FD60
:102DB00070B9234C202223492046FDF78BFD38B102
:102DC00004F1200620221F493046FDF783FD18B983
:102DD000002062B0BDE8F08702AA39461348FFF729
:102DE00029FF0AAA29464046FFF724FF2022214650
:102DF00002A8FDF76FFD30B9202231460AA8FDF781
:102E000069FD0028E5D01320E3E70A20E1E70B2065
:102E1000DFE70C20DDE71020DBE70D20D9E71120EC
:102E2000D7E700BF3CCA000890FF1D000000020861
:102E30000800FEF70CCD000845CA00082804000869
:102E400038040008ECCC0008E8020008F7B5FFF7EA
:102E500039FF064680B3FFF77BFE68B3184A6B461E
:102E6000106851686A4603C3082316491648FDF7DF
:102E700095FE044600B30369B3F5F01F1CD8428BDE
:102E8000382A19D1114A024402F110018B4213D39E
:102E9000103B0D4900209D1AFFF7AEFD04F118010B
:102EA00007462A460020FFF7A7FDA3689F4203D1EB
:102EB000E368984208BF0026304603B0F0BD00BF6B
:102EC00050CA0008DCFF1D00000002080800FEF7E1
:102ED000837842781B04007843EA02231843704742
:102EE0000068704708B50246FFF7FAFF0346101D59
:102EF000FFF7F6FF0146184608BD00000B0A0170F7
:102F000043700B0C090E8370C170704708B501EB5C
:102F10008202031F08460431FFF7E2FF43F8040F63
:102F20009142F7D108BD000010B500EB82020C1FE2
:102F300054F8041FFFF7E2FF04309042F8D110BDAF
:102F40002DE9F04188460546FFF7CCFF06460C46C2
:102F50004046FFF7C7FF464005F108004C40FFF729
:102F6000C1FF07460D4608F10800FFF7BBFF784098
:102F7000694030432143BDE8F0810000F8B50646C2
:102F80000F46FFF7DDFF05460C4606F1100007F17E
:102F90001001FFF7D5FF28432143F8BD2DE9F04F7D
:102FA0000368B7B0384CC1F1000A1A934368374937
:102FB0001B938368364D1C93C368364F1D9303697A
:102FC000DFF8F8B01E9343698AEA0B0B324E1F9369
:102FD0008369DFF8ECE02093C369DFF8E8C0219350
:102FE000036A2293436A2393D0E9102362402B4C57
:102FF00005922B4A53400693836A2493C36A259310
:10300000D0E9122362400D92264A5340264A0E937D
:10301000036B00922693436B279381EAEA7320990E
:103020001793836B18912893C36B289A299300F107
:1030300050031192299A21991292269A1991079276
:10304000279A1E990892249A159103921F99259AFE
:1030500016910492DDE922421C990F911D9910915D
:103060001A9909911B990A911049CDE9015101F171
:103070004F7101F5D341583113910D4914910D4908
:10308000CDE90B710C4F1FE0D182E6ADABD9831FA8
:1030900079217E132BF894FE85AE67BB1F6C3E2B07
:1030A0007F520E518C68059BACD1000819CDE05BB6
:1030B0003AF54FA572F36E3C3BA7CA846BBD41FB4A
:1030C00008C9BCF367E6096A0099097803EBC105F2
:1030D00053F831106D68611842EB0508099D4919D4
:1030E0000A9D45EB0808059D81EA0509069D88EAC9
:1030F000050A1AEB0E0E4CEB090C8EEA04048CEA5E
:103100000202250E45EA0225120E42EA0422009C24
:103110006478099203EBC40253F8344052680919E9
:1031200048EB02084A190592099A48EB02020692F6
:10313000059A82EA0A0A069A4FEA1A4182EA0909BE
:1031400041EA094209994FEA1949349249EA0A4287
:103150003592349A1EEB02022A92359A4CEB020207
:103160002B922A9A55402B9A51400A46490041EA2F
:10317000D5716D00339145EAD2723292009A9278FD
:1031800003EBC20153F832204968039C0D9DA2183D
:10319000049C44EB010E0F9912EB010A1099009A5E
:1031A00041EB0E0E0E9985EA0A058EEA0108039995
:1031B00018EB070746EB050687EA010C74404FEA57
:1031C0001C6141EA0421240E44EA0C2492F803C055
:1031D00003EBCC0953F83CC0D9F804901AEB0C026D
:1031E0004EEB090E52180D924EEB04020E920D9A00
:1031F00082EA08080E9A55404FEA184242EA054210
:103200002D0C309245EA08423192309ABA182C922D
:10321000319A46EB02022D922C9A51402D9A54403D
:10322000620042EAD1724900099241EAD4720492E2
:10323000009A127903EBC20153F832204D680799C6
:103240008A18089941EB050515995218169941EB12
:103250000505179982EA0B04039285EA010A0B9986
:10326000009A1AEB01060C9992F805E041EB040B69
:10327000079953F83E8086EA010C0899039A8BEA75
:1032800001074FEA1C6112EB080241EA07214FEAED
:10329000176747EA0C2703EBCE0CDCF8049045EBEC
:1032A00009055218159245EB07021692159A82EA03
:1032B0000A0A169A4FEA1A49544049EA0442240C71
:1032C0002E9244EA0A42119C2F922E9AB6182F9AF7
:1032D0004BEB020B71408BEA07077A0042EAD1728E
:1032E0004900089241EAD7720792009A917903EB5C
:1032F000C10253F8311052686118129C44EB020865
:10330000189A8918199A42EB0808019A029C4A40B7
:10331000129F88EA040E139C1EEB0405149C44EBD8
:103320000209119C6C4089EA070C270E47EA0C271A
:103330004FEA1C6C4CEA042C009CE47903EBC40AB1
:1033400053F83440DAF804A00919059C48EB0A0840
:10335000C919179148EB0C011891179981EA0E0EC3
:1033600018994FEA1E4A4A404AEA024A120C15EBE3
:103370000A0542EA0E4E87EA050749EB0E0989EA7B
:103380000C0C4FEA4C0848EAD7727F00129247EAC9
:10339000DC721192009A117A03EBC10253F83110DA
:1033A00052686118069C44EB0208049A8918099A2D
:1033B00048EB020881EA0A0A049A88EA0E0E1EEB1C
:1033C00006064BEB0A0B86EA0204099A270E8BEAE3
:1033D000020247EA02274FEA126C009A527A4CEA3C
:1033E000042C03EBC20453F832206468891848EBBC
:1033F0000408CA19099248EB0C020A92099A8EEA4B
:10340000020E0A9A8AEA020A4FEA1E4242EA0A4277
:103410004FEA1A4A01924AEA0E420292019A92191E
:103420000B92029A42EB0B020C920B9A57400C9AA9
:103430008CEA020C4FEA4C0444EAD772359C7F00B8
:10344000049247EADC720392009A927A03EBC2017B
:1034500053F832204E680D998A180E9941EB0606F2
:10346000079912EB01080899009A46EB0106349976
:1034700086EA040A88EA0101079C1AEB050549EB74
:10348000010985EA040C089C89EA04074FEA1C64D8
:1034900044EA07243F0E47EA0C2792F80BC003EBDF
:1034A000CC0E53F83CC0DEF804E018EB0C0246EBFF
:1034B0000E0612190F9246EB070210920F9A8AEA33
:1034C000020A109A51404FEA1A4242EA0142090C9C
:1034D000059241EA0A420692059A52191392069AF7
:1034E00042EB09021492139A5440149A57407A00FE
:1034F00042EAD4726400089244EAD7720792009AB2
:10350000127B03EBC20153F832204D6815998A18DB
:10351000169941EB0505119912EB010A1299009ACF
:1035200045EB010530998AEA0106319985EA0107E0
:103530002A9911EB070E2B9941EB060C11998EEA93
:10354000010412998CEA0108210E41EA08214FEA90
:10355000186848EA042492F80D8003EBC80953F870
:103560003880D9F804901AEB080245EB0905521887
:10357000159245EB04021692159A5740169A56403A
:103580003A0C42EA0642360C0D9246EA07420E9287
:103590000D9A12EB0E0E0E9A42EB0C0C81EA0E0104
:1035A00084EA0C044FEA440A4AEAD17249001292B2
:1035B00041EAD472179C1192009A917B03EBC102ED
:1035C00053F8311052686118189C44EB0208329A83
:1035D000009C8918339AE47B48EB02082E9A81EA12
:1035E00002092F9A88EA020A2C9A12EB0A072D9AEE
:1035F00042EB0906329A87EA020B339A4FEA1B65BF
:10360000724045EA0225120E42EA0B2203EBC40B7C
:1036100053F83440DBF804B0091948EB0B0849199A
:10362000189148EB0201199118998AEA010A19992F
:1036300089EA01094FEA1A4141EA094B4FEA19495F
:103640001BEB070749EA0A4185EA070541EB060635
:10365000179182EA06014A0042EAD5726D0045EAF6
:10366000D174009910310091009D3949A9427FF42D
:103670002BAD099B0C9D83EA0E010A9B83EA0C0883
:103680001A9B59401B9B88EA0303C0E900130F9B58
:1036900013997B401F46109B73401E461C9B5F4046
:1036A0001D9B5E40159BC0E902760B9E5E40169BFB
:1036B0005D401E9B5E401F9B5D40189BC0E90465FA
:1036C0005940199D149B83EA0508209B5940219B72
:1036D00088EA0303C0E90613059B83EA0409069BF5
:1036E00083EA020A229B89EA0304239B8AEA0302F3
:1036F000C0E90842039B0D9A049C83EA020C0E9BCE
:10370000259A5C40249B12998CEA03035440179A33
:10371000C0E90A34079B83EA0B04089B83EA020A88
:10372000269B5C40279B8AEA0302119BC0E90C425E
:10373000019A5A40029B83EA010A289B5A40299B1E
:103740008AEA0303C0E90E2337B0BDE8F08F00BF5B
:103750006CD2000870B505460E46144622B9802288
:1037600021465030FEF7FAFF24F00700E40004F091
:1037700038042844A4F12003C4F1200206FA04F41A
:1037800006FA03F326FA02F21343D0E91462344333
:103790001343C0E9144370BD28220021FEF7DEBFA9
:1037A00001232422002140F8043BFEF7D7BF00008C
:1037B000002351F8232040F8232001330A2BF8D1AD
:1037C00070470000002351F82320524240F8232084
:1037D00001330A2BF7D17047002330B551F823404D
:1037E00052F823502C4440F8234001330A2BF5D1E2
:1037F00030BD0000002330B551F8234052F823506B
:10380000641B40F8234001330A2BF5D130BD000082
:1038100030B55242041F0439243054F8045F51F883
:10382000043F844283EA050303EA020383EA0503B3
:103830002360F2D130BD00002DE9F04F8BB004467B
:1038400008460025FFF74CFB0190081DFFF740FBE1
:103850008301C81D0093FFF73BFB4FEA401A01F1BB
:103860000A00FFF735FB4FEAC00B01F10D00FFF72F
:103870002FFB860001F11000FFF732FB814601F1BA
:103880001400FFF725FB4FEAC01801F11700FFF7FE
:103890001FFB470101F11A00FFF71AFB030101F1B9
:1038A0001D000493FFF714FB019A6C4B03EA80039D
:1038B00012F1007005934FEA906045F1000340EA71
:1038C00083109B1681064FEA901C521A06926CEBED
:1038D0004C020792009A101843F1000216F1007C86
:1038E00045F100014FEA9C6C4CEA811C89164FEAB5
:1038F0008C634FEA9C15F31A65EB450619EB0C092E
:1039000041F1000110F1807C42F100054FEA5C6C4E
:103910004CEAC51C6D161AEB0C0AA0EB4C6245F183
:10392000000519F1807008924FEA506041F10002E1
:1039300040EAC2105216A9EB4061099118EB000150
:10394000009142F100021AF1007145F10005890E63
:1039500041EA8511AD161BEB01004FF0130B0190EE
:1039600045F10005009810F1007042F10002800E50
:1039700040EA821092163F18029742F10002019F1E
:1039800017F1807E45F100054FEA5E6E4EEAC51ED6
:10399000029D13EB0E0346F1000615F18077049D9E
:1039A00042F100027F0E039347EAC2175216ED1947
:1039B00042F1000213F1007C049546F100064FEA43
:1039C0009C6C069B4CEA861C15F10076059D42F125
:1039D0000002B60E46EA8216921615EB060942F16F
:1039E000000219F1807542F100026D0E45EAC21520
:1039F000A5FB0B2BA9EB4565D218079B4BEB030BE3
:103A000012F10078089B4BF1000B4FEA986848EAE6
:103A10008B18A2EB8862226013EB08026260AAEBAB
:103A20008162A260019B6562A3EB4E61039BA3EBE5
:103A30008C63E1602361099B13EB0C036361009BC2
:103A4000A3EB8063A361029BA3EB4760049BA3EB02
:103A50008666E06126620BB0BDE8F08FFCFFFF01D7
:103A60002DE9F04F0D688BB00C694FF0130B82FB02
:103A7000055C82FB044615F100774CF1000ABF0E8D
:103A800047EA8A174FEAAA680AF07C4ABB064AEA64
:103A9000971AEB1A4D6806936CEB0A0314F1007C3D
:103AA000C2FB0578079346F1000E4FEA9C6C4D6906
:103AB0004CEA8E1C4FEAAE6A0EF07C4E4FEA8C63E5
:103AC0004EEA9C1EC2FB05CAE41A66EB0E0E17F105
:103AD000807548F100086D0E45EAC8154FEA686325
:103AE000A7EB45668F6808961CF18076C2FB0753EA
:103AF0004AF1000A760E15F1007946EACA1643F13A
:103B000000034FEA9969ACEB466749EA83190997C4
:103B10004FEA6A6A8F699B16A5EB8965C2FB076A43
:103B2000CF6801964E46C2FB07630296019ECF699D
:103B300016F1007C4AF1000A4FEA9C6C4CEA8A1CA0
:103B40004FEAAA6A6646C2FB076A0396029E16F10E
:103B5000807843F100034FEA586848EAC31814EB31
:103B600008044EEB6366039B13F180770B6A496A86
:103B70004AF1000A7F0E856047EACA174FEA6A6A6F
:103B8000BE46C2FB03EACDF810E014F1007E46F118
:103B900000034FEA9E6E4EEA831E049B13F10076EB
:103BA000A4EB8E644AF10003B60E46EA83169B1618
:103BB000B246C2FB01A31AF18071CDF814A043F103
:103BC0000003490E41EAC3115B16A1FB0B2A0BFB54
:103BD00003AA069BD218079B4AEB030A12F1007353
:103BE0004AF1000A9B0E43EA8A13A2EB8362026049
:103BF000089AD3184360029BA3EB4863C360046137
:103C0000099B13EB0E034361019BA3EB8C63836160
:103C1000039BA3EB4767049BA3EB8666059BC761E9
:103C2000A3EB4161066241620BB0BDE8F08F00007A
:103C30002DE9F04FA3B04FF0130E8146D1E90053A8
:103C4000D2E9008407938B680EFB04F00093CB68E5
:103C50000893D1E904C30993D1E906730A93D1E922
:103C600008630B9393680193D368039313690593D7
:103C700053690C9393690E93D3691593136A179341
:103C8000536A1893079B5B000F93089B5B0010938C
:103C9000099B5B0011930A9B5B0012930B9B5B00DB
:103CA0001393019B0EFB03F31993039B0EFB03FB82
:103CB000059B0EFB03F316930C9B0EFB03F314936F
:103CC0000E9B0EFB03F30D93159B0EFB03F3069364
:103CD000179B0EFB03F30493189B0EFB03F3029355
:103CE000029A0F9B83FB021A009B049AC5FB081AD9
:103CF000C3FB021A109B069AC3FB021A0D9B149A6F
:103D0000CCFB031A119BC3FB021A169B009AC7FB3C
:103D1000031A129BC3FB0B1A199BC6FB031A139BB6
:103D2000C3FB001A079B1A9188FB03300299C5FB5D
:103D30000430C1FB0230049A0899C2FB0130069A94
:103D40000999C2FB0C300D9AC2FB0130149A0A99F2
:103D5000C2FB0730169AC2FB0130199A0B99CBFBB4
:103D60000630C2FB013019930F9B019A1B9083FB15
:103D700004300299C5FB0230009AC8FB0230109A49
:103D8000C1FB0230049A1199C2FB0C30069AC2FBA7
:103D900001300D9A1299C2FB0730149AC2FB013010
:103DA000169AC2FB0630139ACBFB0230019ACDE97A
:103DB0001C30079B83FB02B0039B099AC5FB03B031
:103DC000009BC3FB04B0089BC8FB03B0029BC3FB72
:103DD0000CB0049BC3FB02B0069B0A9AC3FB07B05E
:103DE0000D9BC3FB02B0149B0B9AC3FB06B0169B42
:103DF000C3FB02B0039A0F9B1E9083FB0231059A0E
:103E0000C5FB0231DDE90020C2FB0031109A0298A7
:103E1000C2FB0431119AC8FB0C31C0FB0231049A79
:103E2000C2FB0731069A1298C2FB00310D9AC2FB01
:103E30000631DDE91302C2FB0031059A1493079B9A
:103E4000169183FB02030C9A0399C5FB0203009AA7
:103E5000C2FB0103089A0199C2FB0103099ACCFB3A
:103E600004030A99C8FB0203029AC2FB0703049ADF
:103E7000C2FB0103069A0B99C2FB06030D9AC2FB13
:103E800001030C9A1F930F9B0D9083FB02030E9A64
:103E90000599C5FB0203009AC2FB0103109A03991E
:103EA000C2FB0103019ACCFB0203119AC2FB04037B
:103EB000129A0299C8FB0703C1FB0203049A1399E3
:103EC000C2FB0603069AC2FB01030E9A2093079BCE
:103ED000069083FB0203159A0C99C5FB0203009A16
:103EE000C2FB0103089A0599C2FB0103039A0199D9
:103EF000CCFB0203099AC2FB01030A9AC7FB040325
:103F00000B99C8FB0203029AC2FB0603049AC2FB88
:103F10000103159A21930F9B049083FB0203179AC8
:103F20000E99C5FB0203009AC2FB0103109A0C997B
:103F3000C2FB0103059A0399CCFB0203119AC2FB51
:103F40000103019A0299C7FB0203129AC2FB040300
:103F5000139AC8FB0603C1FB0203179A1093079B31
:103F6000189983FB02320F90C5FB01321598009916
:103F7000C1FB00320E991546089AC2FB01350C9A16
:103F80000599CCFB0235099AC2FB0135039A0199C8
:103F9000C7FB02350A9AC2FB01350B9AC6FB0435F2
:103FA0001A99C8FB023505931A9B079513F1007601
:103FB0004AF10000B60E46EA801600F07C43B206D5
:103FC00043EA96138A1A14996AEB03030892099339
:103FD000199B9E191B9B43EBA060149B13F100756A
:103FE000169B4FEA956543F1000345EA831503F0FC
:103FF0007C44AA0644EA95148A1A169961EB0401D6
:104000000D9C65191F9C44EBA36316F1807440F16D
:104010000000640E44EAC014A6EB44660A961C9E97
:10402000341900941D9C44EB606015F1807443F1D9
:104030000003640E44EAC314A5EB44650B95069D8A
:104040002C190194209C44EB6363009C14F10074D0
:1040500040F100004FEA94681E9C48EA80181BEB70
:10406000080B44EBA060019C14F10076049C43F122
:104070000003B60E46EA831614EB060A219C44EBB5
:10408000A3631BF1807C40F100004FEA5C6C4CEABA
:10409000C01C12EB0C0241EB60611AF180750F98A5
:1040A00043F100036D0E029245EAC3154019AAEBD5
:1040B00045650390109840EB636312F1007741F17E
:1040C0000001BF0E47EA8117039911F100740599A9
:1040D00043F10003A40E44EA8314091904910799DB
:1040E00041EBA363049911F1807043F10003400E8A
:1040F00040EAC3105B16A0FB0E120EFB0323089AC6
:104100008918099A43EB020311F1007E43F1000381
:104110004FEA9E6E4EEA831E0A9B13EB0E03A1EB41
:104120008E61C9F80430009BC9F80010A3EB8863C6
:10413000C9F80830ABEB4C63C9F80C30029BC9F8E6
:104140001C50A3EB87620B9BDF19019BC9F8102061
:10415000A3EB8666039BC9F81470A3EB8464049BED
:10416000C9F81860A3EB4060C9F82040C9F82400E2
:1041700023B0BDE8F08F00002DE9F04F95B04FF06F
:1041800026088246D1E90262D1E9003008924FEA5E
:10419000400B4FEA430ED1E904720392D1E9065273
:1041A00004920A6A05924A6A13210992720001FB7D
:1041B00005F40692089A52000192039A5200029264
:1041C000049A52000A92049A08FB02F20792059A96
:1041D00001FB02F9099A039908FB02F208FB01F8B6
:1041E0008BFB021C0092C3FB031C7300079AC3FBEA
:1041F000091C019BC3FB021C7B00C3FB041C039B2B
:10420000C3FB081C0B91009B019A83FB0638CEFB75
:104210000038C9FB0238079AC2FB0738029AC4FB70
:1042200002380C938BFB0031DDE90002CEFB063136
:10423000C0FB02317A000298C9FB0231079AC2FB27
:1042400000310846089AC4FB0530CDE90D308BFBE0
:104250000631CEFB0231009AC2FB0731029AC9FB3C
:104260000231079A08460099C2FB0530CDE90F30AC
:10427000019B6800029A8BFB0334CEFB0734C6FB1C
:104280000634C1FB0234079A0499C9FB0034C2FB0F
:1042900001348BFB07160793039B089AC3FB0E168A
:1042A000069BC3FB0216009BC3FB05160A9B084630
:1042B000C9FB0306029B11908BFB0310069BCEFBF0
:1042C0000510C3FB0710019BC3FB02100A9B009A59
:1042D000C2FB0310059B049AC9FB031008918BFBDA
:1042E00005131290CEFB02130398069AC2FB00132B
:1042F000019AC2FB0713059A08460099C1FB020305
:1043000013930A9B03908BFB03930498CEFB0293B9
:10431000069AC2FB0593DDE90121C2FB0193099ACC
:104320000099C7FB0793C1FB02930A93059B8BFB84
:104330000312099BCEFB0312069BC3FB0012019BD9
:10434000C3FB0512029B08461546C7FB03050B9BE2
:10435000049013F1007E0B9805954CF100014FEA93
:104360009E6E4EEA811E01F07C434FEA8E6243EA64
:104370009E13801A6CEB0303069009930C9B07981D
:1043800013EB0E0E079B48EBA16813F1007C44F180
:1043900000034FEA9C6C4CEA831C03F07C414FEA1B
:1043A0008C6241EA9C11821A64EB0104119911EBB1
:1043B0000C0C46EBA3631EF1807648F10001760EEB
:1043C00046EAC116AEEB466007900D988019009042
:1043D0000E9840EB61611CF1807E43F100064FEACC
:1043E0005E6343EAC613ACEB43600B900898C318B6
:1043F00000980193129B43EB666310F100760F98CF
:1044000041F100014FEA966848EA811810EB080B69
:10441000109840EBA161019810F1007643F1000083
:10442000B60E039B46EA80169B190293139B43EB3F
:10443000A0631BF1807C41F100004FEA5C6C4CEA08
:10444000C01C12EB0C0244EB60610298039210F165
:1044500080750A9843F100036D0E45EAC31519EB08
:10446000050940EB636312F100774FF0130241F14D
:10447000000119F100744FEA976743F10003A40E9D
:1044800047EA8117049944EA83140919A9EB846463
:104490000491059941EBA363049911F1807043F1F4
:1044A0000003400E40EAC3105B16A0FB021E02FB95
:1044B00003E3069A8918099A43EB020311F1007E7F
:1044C00043F100034FEA9E6E4EEA831E079B13EBF7
:1044D0000E03A1EB8E61CAF80430009BCAF80010ED
:1044E000A3EB8863CAF80830ABEB4C63CAF82040F2
:1044F000CAF80C30039BA3EB87620B9BDF19019B6F
:10450000CAF81020A3EB8666029BCAF81470A3EBCE
:104510004565049BCAF81860A3EB4060CAF81C50BC
:10452000CAF8240015B0BDE8F08F00000029A1BF33
:10453000CB1001F00701C05C40FA01F1ACBF01F003
:10454000010000207047000070B500F11C02041F3C
:10455000084E0120002556F8041B54F8043FC943B7
:104560005B1845EB05011B1841F10000A242F2D196
:1045700070BD00BF14CD0008F8B5002406460846FB
:104580000D46FFF7E1FFDFF834C00246C117C0F166
:10459000000E20465CF8043B55F824702EEA030315
:1045A000DB1940EB00079B1846F8243004F10104A6
:1045B00041EB07020021082CECD1F8BD14CD000816
:1045C00010B50446FFF7E8F804F12800FFF7E8F813
:1045D00004F15000FFF7E4F804F17800BDE8104062
:1045E000FFF7DAB838B50A4605460C462831FFF71A
:1045F000F3F82830FFF7FEF804F1500105F1500000
:10460000FFF7D6F804F1780105F17800024ABDE819
:104610003840FFF70DBB00BF5CCD00082DE9F0432B
:1046200095B0044616460D460A466846283104F100
:104630002808FFF7D1F80AA8FFF7DCF832466946E8
:104640006846FFF7F5FA0AA906F1280204F15007B7
:10465000084604F17809FFF7EBFA0AAA69464046D2
:10466000FFF7BAF82046FFF7C5F805F150023846C3
:104670001146FFF7B1F806F150023946FFF7D8FAB4
:1046800006F1780205F178014846FFF7D1FA4A466B
:1046900039466846FFF7A0F80AA8FFF7ABF842468C
:1046A00021464846FFF7C4FA0AAA21462046FFF7EA
:1046B000BFFA6A4641464046FFF7BAFA0AAA694677
:1046C0003846FFF7B5FA15B0BDE8F0832DE9F84F8D
:1046D0000A9E1C460546904618460F460A46283153
:1046E000FFF77AF8304605F1280AFFF783F84246CB
:1046F0002146204605F15009FFF79AFA08F12802F1
:1047000031463046FFF794FA324621465046FFF7CD
:1047100063F82846FFF76EF807F1500205F1780BB1
:1047200048461146FFF758F808F1500207F17801A2
:104730005846FFF77DFA5A4649462046FFF74CF89F
:104740003046FFF757F8524629465846FFF770FAA9
:10475000324629462846FFF76BFA22465146504614
:10476000FFF766FA324621464846BDE8F84FFFF7A4
:104770005FBA00002DE9F047144689460746104607
:1047800004F1280809F1280A04F15005FFF7F4FCA8
:1047900051464046FFF7F0FC09F15001284604F16C
:1047A0007806FFF7E9FC294628460222FFF758F968
:1047B000494607F1780952463046FFF70DF8314671
:1047C0004846FFF7D9FC224641463046FFF704F839
:1047D0004046FFF70FF8324649462046FFF70AF8F1
:1047E000424629462846FFF705F82A46214638461C
:1047F000FFF71EFA4246314607F12800FFF718FA84
:104800002A46414607F15000FFF712FA3246214688
:104810004846BDE8F047FFF70BBA000038B5FC2268
:1048200004460D4611462846FFF780FE08B9013AB6
:10483000F8D14FF6FF7301322380E270A37038BDC8
:104840002DE9F84F9846C37805460E4693420CD1A1
:1048500011464046571EFFF769FE0446404639465A
:10486000FFF764FE844209D1EF70B5F9003093423E
:104870000CBF95F902000020BDE8F88F511C4FF0E5
:1048800000098E42A8BF0E4606F1FF3A971B04FAB4
:104890000AF4BB466442CA450BF1010B09DD5946D7
:1048A0004046FFF743FE00FA09F009F1010904440C
:1048B000F1E739464046FFF739FE0444634223409E
:1048C00013F0AA0F14BF0120002013F0CC0118BF71
:1048D000022113F0F00340EA010018BF0423511C29
:1048E00003438E1B1E4444FA03F32E80AB70BBE7D8
:1048F000D0E9103210B5D0F8D04000211B1952F188
:10490000000228BF0121C0E9103231B1D0E91232D2
:10491000013342F10002C0E9123210BD70B50D46FC
:10492000A0F1080600F1780428460835FEF7DAFA07
:10493000E6E90201A642F7D170BD0000F8B50446D1
:104940000D468E180027B54218D0D4F8D030802BF1
:1049500007D12046FFF7CCFF0021FEF71FFBC4F86C
:10496000D070D4F8D020204615F8011BFEF7F2FED7
:10497000D4F8D0300133C4F8D030E4E7F8BD0000FB
:1049800008B5FEF7FBFA0843B0FA80F04009013899
:1049900008BD000000231A468B4202D0C2540133E6
:1049A000FAE7704770B59EB005460C460426684687
:1049B000FFF7E2FB69460AA8FFF7DEFB0AA90846F3
:1049C000FFF7DAFB0AAA21461046FFF731F90AAAD7
:1049D00069466846FFF72CF969466846FFF7CCFB45
:1049E0006A460AA96846FFF723F969460AA8FFF74D
:1049F000C3FB0AA90846FFF7BFFB013EF9D16A468F
:104A00000AA968460926FFF713F969460AA8FFF7BD
:104A1000B3FB0AA90846FFF7AFFB013EF9D10AA98B
:104A20006A4613260846FFF703F90AA914A8FFF7F8
:104A3000A3FB14A90846FFF79FFB013EF9D10AAA80
:104A400014A909261046FFF7F3F80AA90846FFF74C
:104A500093FB0AA90846FFF78FFB013EF9D16A468E
:104A60000AA968463126FFF7E3F869460AA8FFF766
:104A700083FB0AA90846FFF77FFB013EF9D10AA98B
:104A80006A4663260846FFF7D3F80AA914A8FFF779
:104A900073FB14A90846FFF76FFB013EF9D10AAA80
:104AA00014A931261046FFF7C3F80AA90846FFF7F4
:104AB00063FB0AA90846FFF75FFB013EF9D16A468E
:104AC0000AA96846FFF7B4F869466846FFF754FB41
:104AD00069466846FFF750FB224669462846FFF7BD
:104AE000A7F828216846FFF755FF0DEB0100FFF7F7
:104AF00051FF14A8FFF74EFF1EB070BD10B58CB06B
:104B0000044602A80191FFF74DFF02A90846FFF7EE
:104B100033FB02A90846FFF72FFB02A9019A0846BA
:104B2000FFF786F802A90846FFF726FB019A02A9BB
:104B30002046FFF77DF8282102A8FFF72BFF0CB0D5
:104B400010BD000070B58AB002460B4601F1280680
:104B50006D461868083353F8041C2C46B34203C44E
:104B60002546F6D11321099B684600244B4369462C
:104B700003F180735B160568013408302B4450F84C
:104B8000045C052C05EBA3634FEA6363F3D11320A8
:104B9000002443430868013408310344052C23F002
:104BA0007C4041F8080C51F8040C00EBA3604FEA7C
:104BB000606320F07E4041F8040CEBD11046DDE943
:104BC000003143EA8161FEF799F90299019B101DBA
:104BD000C90441EA9311FEF791F90399029B02F18E
:104BE0000800490341EA5331FEF788F90499039B11
:104BF00002F10C00890141EAD341FEF77FF902F18D
:104C00001000DDE9053143EA4161FEF777F90799C4
:104C1000069B02F11400C90441EAD311FEF76EF9B4
:104C20000899079B02F11800090341EA5331FEF786
:104C300065F90999089B02F11C00890141EA1351A9
:104C4000FEF75CF928216846FFF7A4FE0AB070BDA4
:104C50002DE9F04F2DED028B9DB00C466422002112
:104C600008EE100A03A8FDF779FD0DF10C080022EB
:104C7000DFF8E0E0414604F13C0992465EF8043B6F
:104C8000251F8C460026019300950098D346DCF83A
:104C9000003050F8047F00903846019FE7FB003B4E
:104CA0009B194CF8043B4BF10006009B9945ECD155
:104CB00001320E640431092AE0D10021202203A828
:104CC000FDF74CFD002103AB8E461A6C0020DFF887
:104CD00088A09C46C1F10809019200905AF8047B13
:104CE000F346DCF8002001303E46019FE7FB062B2F
:104CF000009E92194CF8042B4BF10002484500929B
:104D0000ECD3013104330829DFD11C340121002008
:104D1000D8F8002055F8043FD2439B1840EB00021E
:104D20005B1842F10001A54248F8043BF0D103A909
:104D30000846FFF721FC082203A918EE100AFEF727
:104D4000F3F8642103A8FFF725FE1DB0BDEC028B2C
:104D5000BDE8F08F6CD2000814CD000810B588B003
:104D600001466846FFF7EEFE9DF8004068462021A8
:104D700004F00104FFF70EFE204608B010BD00004D
:104D800030B59FB00D46044650316846FFF7B6FE79
:104D90006A4629460AA8FEF74BFF6A4605F1280134
:104DA00014A8FEF745FF14A92046FFF7CBFE0AA87A
:104DB000FFF7D4FFE37F282183EAC010E07768463D
:104DC000FFF7E8FD0DEB0100FFF7E4FD14A8FFF786
:104DD000E1FD1FB030BD000010B590B004461022B8
:104DE00001466846FEF792F869462046FFF730FF15
:104DF00040216846FFF7CEFD10B010BD10B590B051
:104E00000C4601466846FFF79DFE214608A8FFF7BD
:104E100099FE08A96846FFF7B3FD202104466846BD
:104E2000FFF7B8FD0DEB0100FFF7B4FD601C10B0FB
:104E300010BD0000F0B595B004466846FEF7B8FC1A
:104E400069462046FFF7AEFD21460AA8FFF794F910
:104E50000AA96A460846FEF7EBFE6846FEF7A0FC84
:104E600069460AA8FFF7CAFF694606466846FEF784
:104E7000A9FC0AA8FFF7C2FF104A0546684611467A
:104E8000FEF7A0FC69460AA8FFF7B8FF07462146CF
:104E900068460A4AFEF7CCFE45EA07026946204604
:104EA000FEF7B6FC28210DEB0100FFF773FD684605
:104EB000FFF770FD46EA050015B0F0BDC4CD00084F
:104EC000DFF880C02DE9F0419046A0B004460E46C0
:104ED0001D4600F108070CF138026346083703CB82
:104EE000934247F8080C47F8041C9C46F5D186EA23
:104EF0000522124B0021534000222360104B6360B7
:104F00000023C4E93416C4E91023C4E912238DB187
:104F10007C2201A80091FDF721FC2A464146684603
:104F2000FDF7F6FB694604F15000FFF7F7FC80231C
:104F3000C4F8D03020B0BDE8F08100BF08C9BDF290
:104F400067E6096A8CCD0008002340211A46FFF766
:104F5000B7BF00008830FFF7F7BF00002DE9F0472A
:104F600004460D4617469AB3D0F8D0604FF0000AB9
:104F700004F150094FF08008764206F07F06964211
:104F800028BF164632463544BE1BFFF7D7FC26F035
:104F90007F072F44AF4213D0D4F8D030802B07D1F5
:104FA0002046FFF7A5FC0021FDF7F8FFC4F8D0A0CC
:104FB00029464846FFF7B2FC8035C4F8D080E9E7BF
:104FC00006F07F0239462046BDE8F047FFF7B6BC41
:104FD000BDE8F0878830FFF7C1BF00002DE9F84336
:104FE00004460D46D0F8D0607F2E06D83246002108
:104FF00020460136FEF7AEFBF6E72046A4F108078F
:10500000FFF776FC0121FDF7C9FFD4F8D4202E4626
:1050100022F00708A84446450CD057F8081F304630
:10502000D7F80490FDF76AFF301D08364946FDF7B2
:1050300065FFF0E722F00703D4F8D4209A4217D98D
:1050400003F0070223F00700DE08D100204454F8E3
:1050500036204768C1F12006A1F12000CA4007FAB6
:1050600006F627FA00F032430243EA540133E3E73D
:105070002046D821BDE8F843FFF78CBC8830FFF705
:10508000ADBF000010B5B6B004466846FFF718FF84
:105090006846DDE93812FFF761FF21466846FFF7F1
:1050A0009DFF36B010BD0000002307B5CDE900120A
:1050B0001A464021FFF7E6FF03B05DF804FB00004D
:1050C00003689B68184700002DE9F0410E4604462E
:1050D00015460139024606F13F0042F8043B11F83B
:1050E000017F814202F8017BF9D16A1E04F164015B
:1050F00005F11F0012F8017F824201F8017BF9D10E
:1051000020465B6898472368314620469B682022EA
:1051100098472368294620469B682022BDE8F04135
:1051200018470000014BFFF7CFBF00BF90D2000827
:10513000FFF7C6BF2DE9F04F8046ADF56F7D054600
:1051400058F8043B16A905F1240A05F16409DB6847
:1051500026AC984716A8FFF73FFE0822514604A840
:10516000FDF7D4FE494630A8FEF766FB3AA8FEF7E5
:1051700017FB30A944A8FEF7FFFF864A44A9204642
:10518000FEF756FD44A93AAA0846FEF733FB20462F
:105190002146FEF721FB44A92246FEF749FD2146A0
:1051A0002046FFF747FE28B94FF0FF300DF56F7D21
:1051B000BDE8F08F224644A92046FEF739FD20467F
:1051C000FFF7CCFD95F88330B0EBD31F03D0214619
:1051D0002046FEF7F7FA44A830AA2146FEF728FD3C
:1051E00004A8FFF7B1F90028DED121462046FEF7DA
:1051F000E9FA44A94EAF0846FEF7E4FA76AA21463A
:105200003846FFF7B7FA21469EA8FFF7EBF99EAAAA
:10521000394676A8FFF702FA76A9C6A8FFF7E2F9A1
:1052200016A902A8FFF7FAFA03A85146FFF7F6FA03
:105230009DF80B609DF80F3020469E4238BF1E46F9
:10524000FFF7BEF93A4621462046FFF793FA16AB20
:105250003246032102A8FFF7F3FA0546534605211B
:1052600003A8FFF7EDFA002D834623DD6D10A02281
:105270009EAB02FB053221462046FFF7CFF9BBF17A
:10528000000F3ADD76AB44494FEA6B0B782200936E
:10529000204602FB0B120CAB2146FFF717FA013E2A
:1052A000D0D226A94846FFF76BFD49464046FFF796
:1052B00067FB7BE7E3D005EBD5756FF09F019EABF5
:1052C00080A86D104D435919FEF772FA9EAB05F197
:1052D000280176A81944FEF76BFA9EAB05F1500140
:1052E0008AA81944FEF764FA9EAB05F1780194A8E8
:1052F0001944FEF767FA76AABDE7D0D00BEBDB7353
:10530000254A6FF0770530A95B100CA803FB052533
:105310002246FEF761FA76A8FEF76CFA0CA905F1B1
:1053200028020846FEF784FC76A92A460846FEF7BE
:105330007FFC76AA0CA930A8FEF74EFA2046FEF7AD
:1053400059FA3AAA11461046FEF746FA44A905F161
:1053500050020846FEF76CFC44AA3AA90CA8FEF7D6
:1053600049FA76A8FEF738FA30AA214644A8FEF793
:105370005FFC76AA21462046FEF75AFC30A90CAA0B
:105380000846FEF755FC76AA0CA93AA8FEF750FC91
:1053900085E700BF34CD0008ECCD0008012188422C
:1053A00038BF084605F026BC08B105F027BC704799
:1053B00010B5084C01220849002001F0C7FE2378EF
:1053C0003BB1064803F0B2FF044803F0E5FF0023B9
:1053D000237010BD04340020A4D20008E43600205D
:1053E0002DE9F041234C244E236DBBB901224FF42B
:1053F000004104F1500005F063FD236D1B686BB99B
:1054000001224FF4805104F1500005F059FD236D45
:105410001B681BB900203070BDE8F08133780BB1F8
:10542000FFF7C6FF0324154F4FF00008114D134935
:105430002846C7F8048003F0A1FF284603F0DAFDF0
:1054400038B1013C284603F0A7FF14F0FF04E1D077
:10545000EDE70B4901220B4801F078FE014618B137
:10546000284603F063FFECE7074800F011F801203D
:10547000D1E700BFE4360020043400203C220020A5
:10548000A4D2000808340020A8D2000802F0B8BC5A
:105490000FB4002004B070470068704703460068EE
:1054A000596870470B0A017043700B0C090E83702A
:1054B000C1707047110A027003714170110C120E15
:1054C0008170C2701A0A42711A0C1B0E8271C3716C
:1054D00070470000C36A0239023B8B4283BF438995
:1054E000006C01FB0300002070470000C2F307239B
:1054F0008A76CB760378032B01BF120C0A75120A49
:105500004A75704700F10B010022D30143EA5203B0
:1055100010F8012B52FA83F38842DAB2F5D1104623
:105520007047000010B54178044600200131024662
:105530004901022A16BFA35C032203EBC03302F128
:1055400001021EBF9BB203EB500398B29142F0D808
:1055500010BD000002684AB1134613F8011B1F2951
:105560000DD93A29F9D1911C8B4202D04FF0FF306E
:1055700070471278302AF9D1036000207047014B40
:10558000187870475436002038B50D46044618B9CF
:10559000092000232B6038BD0368002BF8D01A784F
:1055A000002AF5D08188DA889142F1D1587804F048
:1055B0008BFE10F00100EBD12368EBE738B50D4608
:1055C00040F25231144602F0BDF9FF2807D9012CF0
:1055D0000BD9030A022468702B70204638BD30B105
:1055E000002CFAD001242870F7E70024F5E70446E0
:1055F000F3E700002DE9F8430026D0F800800546C7
:105600000C468E76836B002B4AD098F80030042B22
:105610004BD133463546402720E0B7F5187F80F060
:10562000C480F90606F1010608BF0237D05B0237D5
:105630002BB900F5205292B2B2F5006F0DD305F1EF
:105640001A01C5F1FF0240EA03402144FFF7B6FF0B
:10565000002800F0AA80054400200346D8F8102056
:1056600092F82310B142D8D8002B40F09E80002D34
:1056700000F09B8000232544AB766373D8F810209C
:10568000137903F03701DB0621730BD402F13800E4
:10569000FFF704FFC4E9000193896381D389238163
:1056A000BDE8F88300200146F4E7C36C01335ED106
:1056B000EA6B00232E26551E184615F8011F0130EF
:1056C00020290CD0052908BFE521092804D10B2B7E
:1056D0009EBFE71801337E73E718013379730B28F7
:1056E000EBD1E11800204873A17E00294BD1002B9B
:1056F00040D06FF00C0604F10D000825361B33185E
:1057000010F8011B002938D02E298BB24AD0A3F102
:105710004101192903D8117B0D4200D020330373B6
:10572000EDE7B9F1000F05D100F520539BB2B3F5B9
:10573000006F0BD307F11A01C7F1FF0240EA0940DD
:105740002144FFF73BFF48B1074400200236814661
:10575000D8F80C30985B0028E3D13846B9F1000F37
:105760004FF0000218BF002023189A76A0E7B14638
:105770003746EDE73F23A3760123234400219976A2
:10578000137B03B96373D37A02F11C0003F03F0368
:1057900023730023FFF780FE20606360D38A638158
:1057A000138B7CE710250B46B9E73F230125A37631
:1057B00060E7000038B50546002435F8020B08B94B
:1057C000204638BD02F0F2F86308C2B203EBC433DE
:1057D00012FA83F39AB2C0F3072303EB520303EBED
:1057E000C2339CB2E9E7000037B5C37804461BB961
:1057F0000025284603B030BD00F14C01826C012326
:105800004078019104F086FD054680B9A36BE070F5
:10581000A06C226BC31A9342EAD2A3780199022B9F
:10582000E6D102440123607804F074FDE1E701252C
:10583000DFE7000038B5836C05460C468B4210D07C
:10584000FFF7D2FF60B92246012305F14C016878C9
:1058500004F03CFD00281CBF4FF0FF340120AC6475
:1058600038BD0020FCE7000038B500230446C370B3
:105870004FF0FF338364FFF7DDFF00284BD1B4F80E
:105880004A524AF655239D4207D10B22254904F17D
:105890004C00FBF71FF800283FD094F84C30EB2B5E
:1058A00003D01833DBB2012B2ED84AF655239D4284
:1058B00006D108221C4904F19E00FBF70BF848B3FF
:1058C000B4F85730B3F5007F1ED194F85930DBB1EE
:1058D0005A1E1A4218D1B4F85A30ABB194F85C3061
:1058E000013B012B10D8B4F85D306BB1B4F85F30D8
:1058F0007F2B06D804F16C00FFF7CEFDB0F5803F9A
:1059000002D3B4F8623053B94AF6552085420CBF31
:105910000220032038BD0420FCE70120FAE7002024
:10592000F8E700BFD4D20008E0D2000802392DE920
:10593000F04701F007044FF0010A466C05460AFAE9
:1059400004F41746984606EB1136C1F3C809E4B2D1
:10595000314628460136FFF76DFF18B10120BDE83A
:10596000F087994605EB090292F84C30234214BFA8
:1059700001210021414513D06340013F82F84C30A2
:1059800085F803A0EBD0640014F0FF04EAD109F11C
:10599000010301244FF00009B3F5007FE1D1D7E7FF
:1059A0000220DCE701290246F8B50C4640F28C8063
:1059B0000668F36A8B4240F287803378013B032B01
:1059C00000F28280DFE803F00229384B04EB540533
:1059D000B16B304601EB5521FFF72CFF10B14FF0B2
:1059E000FF30F8BD6F1CC5F30805B16B3046354478
:1059F00001EB572195F84C50FFF71CFF0028EED122
:105A0000C7F30807E3073E4496F84C0045EA002038
:105A10004CBF0009C0F30B00E3E7B16B304601EB6C
:105A20001421FFF707FF0028D9D1640004F4FF74A4
:105A30002644B6F84C00D4E7B16B304601EBD411E4
:105A4000FFF7F8FE0028CAD1A40006F14C0004F4C8
:105A5000FE742044FFF720FD20F07040C1E7D0E93C
:105A60000430D57953EA000101D0916801B95DBBDA
:105A70009168022DA4EB01010DD1013B728940F127
:105A8000FF305B0A43EAC053B3FBF2F399421BD8E1
:105A90001CD0601CA5E7032D02D193698B42F8D876
:105AA000D3699BB9B16B304601EBD411FFF7C2FE4D
:105AB000002894D1A0004C3600F4FE703044FFF76B
:105AC000EBFC20F000408CE701208AE76FF00040FB
:105AD00087E70000F8B5066804460D463378042BC6
